S01700004763634170706C69636174696F6E312E737265635B
S11300000C942A000C9447000C9447000C9447006D
S11300100C9447000C9447000C9447000C94470040
S11300200C9447000C9447000C9447000C9449002E
S11300300C9447000C9447000C9447000C94470020
S11300400C9447000C9447000C9447000C94470010
S11300500C94470011241FBECFE5D8E0DEBFCDBF0E
S113006010E0A0E6B0E0E8E0F3E002C005900D92F5
S1130070AE36B107D9F720E0AEE6B0E001C01D927C
S1130080A237B207E1F70E9472000C9482010C942B
S113009000001F920F920FB60F9211242F933F93DB
S11300A04F935F936F937F938F939F93AF93BF937C
S11300B0EF93FF9380E30E94440180E690E00E9466
S11300C06D01FF91EF91BF91AF919F918F917F91BE
S11300D06F915F914F913F912F910F900FBE0F90B1
S11300E01F90189587E690E00E945F0180E690E0FB
S11300F00E946D0183B7856083BF89B7816089BF22
S113010084B3836F84BB85B385BB899A0E94C10085
S113011085E690E00E941E010E943301789400005D
S11301208CE690E00E946D01FACF83EF84BB15BA90
S11301300895A99A95E89A95F1F7000095B39F70F0
S113014095BB95B38295807F892B85BB85E88A957D
S1130150F1F70000A99895E89A95F1F70000089541
S1130160CF93C82F611102C0A89801C0A89A8C2F00
S113017082958F700E9499008C2F0E949900CF91D4
S113018008950E9495008FEF9CE70197F1F700C056
S1130190000083E00E9499008FE097E20197F1F755
S11301A000C0000083E00E9499008FEE90E0019768
S11301B0F1F700C0000083E00E9499008FEC97E003
S11301C00197F1F700C0000082E00E9499008FECD3
S11301D097E00197F1F700C0000060E088E20E9418
S11301E0B0008FEC97E00197F1F700C0000060E0E9
S11301F088E00E94B0008FEC97E00197F1F700C00F
S1130200000060E081E00E94B0008FEC97E001976D
S1130210F1F700C0000060E083E00E94B0008FECC2
S113022097E00197F1F700C0000060E08CE00E94C5
S1130230B000089561E00E94B00008951F93CF9329
S1130240DF93EC018881882351F010E00E941A01A9
S11302501F5FFE01E10FF11D80818111F7CFDF9156
S1130260CF911F91089587B3886A87BBBE98C598BC
S1130270BA9AC29A8DB183658DB9709A08958FB96F
S1130280779BFECF8FB1089510926F0010926E008D
S1130290C29880E00E943F018093700080E00E9439
S11302A03F0180937100C29A809170000E9469019D
S11302B0809171000E94690180916E00089590BD43
S11302C089B98AB188618AB9599A80B58E6880BD26
S11302D008955D9BFECF8CB908951F93CF93DF9350
S11302E0EC018881882351F010E00E9469011F5FAE
S11302F0FE01E10FF11D80818111F7CFDF91CF91D4
S10B03001F910895F894FFCF4A
S11103084F4B5F21004C4344202D20005A002F
S9030000FC
