S01700004763634170706C69636174696F6E312E737265635B
S113000012C043C02BC074C029C028C027C026C05A
S113001025C024C023C022C021C020C01FC01EC0D0
S11300201DC01CC01BC011241FBECFE5D4E0DEBF21
S1130030CDBF10E0A0E6B0E0E2E8F1E002C0059038
S11300400D92A236B107D9F720E0A2E6B0E001C0D4
S11300501D92A536B207E1F776D091C0D1CF93B304
S11300609F739093640080B3829586958695837080
S11300708093630080B38295880F880F807C80937F
S11300806300892B8093640008951F920F920FB62A
S11300900F9211242F933F934F935F936F937F930A
S11300A08F939F93AF93BF93EF93FF93D8DF809386
S11300B0620088BB80916200811102C0000007C009
S11300C084BD85B5866085BD8BB78F7B8BBFFF9163
S11300D0EF91BF91AF919F918F917F916F915F91BC
S11300E04F913F912F910F900FBE0F901F90189535
S11300F01F920F920FB60F9211248F93809160007C
S1130100813019F0823051F018C0939A80916000C8
S11301108F5F809360008FEF84BD0FC085B58B7FA8
S113012085BD85B58D7F85BD8BB780648BBF939866
S1130130809160008150809360008F910F900FBE7A
S11301400F901F9018958A9892988B9A939884B3DD
S113015084BB85B385BB85B78E7F85BF85B7826039
S113016085BF8BB780648BBF8FEF87BB85B58860F5
S113017085BD89B7806889BF78940000FECFF89464
S1050180FFCFAB
S1050182010076
S9030000FC
