S01700004763634170706C69636174696F6E312E737265635B
S113000009C016C015C014C013C012C011C010C05E
S11300100FC00FC011241FBECFE9CDBF20E0A0E662
S1130020B0E001C01D92A336B207E1F71CD050C066
S1130030E7CF1F920F920FB60F9211248F939F93C5
S113004084B195B19695879596958795909361001F
S11300508093600086BF369A9F918F910F900FBE58
S11300600F901F901895B998C198B89AC098BA98EB
S1130070C29886B18C6886B93E98389A369A789434
S113008091E0B1990FC08091620081110BC09093EF
S1130090620083B7826083BF8FB583608FBD8FB5E5
S11300A080688FBDB19BEDCF80916200813049F7AC
S11300B083B78D7F83BF8FB58D7F8FBD8FB58E7FC7
S11300C08FBD8FB58F778FBD10926200C098D9CF46
S10700D0F894FFCFCE
S9030000FC
